{
  "contractName": "Vote",
  "abi": [
    {
      "inputs": [],
      "stateMutability": "nonpayable",
      "type": "constructor"
    },
    {
      "inputs": [],
      "name": "winner",
      "outputs": [
        {
          "internalType": "address",
          "name": "",
          "type": "address"
        }
      ],
      "stateMutability": "view",
      "type": "function",
      "constant": true
    },
    {
      "inputs": [
        {
          "internalType": "string",
          "name": "_name",
          "type": "string"
        },
        {
          "internalType": "uint256",
          "name": "_age",
          "type": "uint256"
        },
        {
          "internalType": "string",
          "name": "_gender",
          "type": "string"
        }
      ],
      "name": "voterRegister",
      "outputs": [
        {
          "internalType": "bool",
          "name": "",
          "type": "bool"
        }
      ],
      "stateMutability": "nonpayable",
      "type": "function"
    },
    {
      "inputs": [
        {
          "internalType": "uint256",
          "name": "_voterId",
          "type": "uint256"
        },
        {
          "internalType": "uint256",
          "name": "_id",
          "type": "uint256"
        }
      ],
      "name": "vote",
      "outputs": [],
      "stateMutability": "nonpayable",
      "type": "function"
    },
    {
      "inputs": [
        {
          "internalType": "string",
          "name": "_name",
          "type": "string"
        },
        {
          "internalType": "string",
          "name": "_party",
          "type": "string"
        },
        {
          "internalType": "uint256",
          "name": "_age",
          "type": "uint256"
        },
        {
          "internalType": "string",
          "name": "_gender",
          "type": "string"
        }
      ],
      "name": "candidateRegister",
      "outputs": [],
      "stateMutability": "nonpayable",
      "type": "function"
    },
    {
      "inputs": [],
      "name": "result",
      "outputs": [],
      "stateMutability": "nonpayable",
      "type": "function"
    },
    {
      "inputs": [],
      "name": "candidateList",
      "outputs": [
        {
          "components": [
            {
              "internalType": "string",
              "name": "name",
              "type": "string"
            },
            {
              "internalType": "string",
              "name": "party",
              "type": "string"
            },
            {
              "internalType": "uint256",
              "name": "age",
              "type": "uint256"
            },
            {
              "internalType": "string",
              "name": "gender",
              "type": "string"
            },
            {
              "internalType": "uint256",
              "name": "candidateId",
              "type": "uint256"
            },
            {
              "internalType": "address",
              "name": "candidateAddress",
              "type": "address"
            },
            {
              "internalType": "uint256",
              "name": "votes",
              "type": "uint256"
            }
          ],
          "internalType": "struct Vote.Candidate[]",
          "name": "",
          "type": "tuple[]"
        }
      ],
      "stateMutability": "view",
      "type": "function",
      "constant": true
    },
    {
      "inputs": [],
      "name": "voterList",
      "outputs": [
        {
          "components": [
            {
              "internalType": "string",
              "name": "name",
              "type": "string"
            },
            {
              "internalType": "uint256",
              "name": "age",
              "type": "uint256"
            },
            {
              "internalType": "uint256",
              "name": "voterId",
              "type": "uint256"
            },
            {
              "internalType": "string",
              "name": "gender",
              "type": "string"
            },
            {
              "internalType": "uint256",
              "name": "voteCandidateId",
              "type": "uint256"
            },
            {
              "internalType": "address",
              "name": "voterAddress",
              "type": "address"
            }
          ],
          "internalType": "struct Vote.Voter[]",
          "name": "",
          "type": "tuple[]"
        }
      ],
      "stateMutability": "view",
      "type": "function",
      "constant": true
    },
    {
      "inputs": [
        {
          "internalType": "uint256",
          "name": "_startTime",
          "type": "uint256"
        },
        {
          "internalType": "uint256",
          "name": "_endTime",
          "type": "uint256"
        }
      ],
      "name": "voteTime",
      "outputs": [],
      "stateMutability": "nonpayable",
      "type": "function"
    },
    {
      "inputs": [],
      "name": "votingStatus",
      "outputs": [
        {
          "internalType": "string",
          "name": "",
          "type": "string"
        }
      ],
      "stateMutability": "view",
      "type": "function",
      "constant": true
    },
    {
      "inputs": [],
      "name": "emergency",
      "outputs": [],
      "stateMutability": "nonpayable",
      "type": "function"
    }
  ],
  "bytecode": "0x60806040526001600255600160035534801561001a57600080fd5b50336000806101000a81548173ffffffffffffffffffffffffffffffffffffffff021916908373ffffffffffffffffffffffffffffffffffffffff160217905550612d2b8061006a6000396000f3fe608060405234801561001057600080fd5b506004361061009e5760003560e01c806393e5fed21161006657806393e5fed214610123578063b384abef14610153578063caa6fea41461016f578063cf5ce2e714610179578063dfbf53ae146101955761009e565b806319f41a40146100a357806324089918146100c1578063498ea441146100df57806365372147146100fd57806365ca2be314610107575b600080fd5b6100ab6101b3565b6040516100b89190611bd7565b60405180910390f35b6100c96102ad565b6040516100d69190611def565b60405180910390f35b6100e7610521565b6040516100f49190611f7d565b60405180910390f35b610105610827565b005b610121600480360381019061011c9190611fd5565b610abe565b005b61013d6004803603810190610138919061207a565b610b91565b60405161014a919061212a565b60405180910390f35b61016d60048036038101906101689190611fd5565b610eac565b005b61017761111c565b005b610193600480360381019061018e9190612145565b611139565b005b61019d611401565b6040516101aa919061221d565b60405180910390f35b60606000600454036101fc576040518060400160405280600b81526020017f4e6f74205374617274656400000000000000000000000000000000000000000081525090506102aa565b600060045414158015610210575042600554115b801561022f575060001515600860009054906101000a900460ff161515145b15610271576040518060400160405280600b81526020017f496e2070726f677265737300000000000000000000000000000000000000000081525090506102aa565b6040518060400160405280600581526020017f456e64656400000000000000000000000000000000000000000000000000000081525090505b90565b6060600060016002546102c09190612267565b67ffffffffffffffff8111156102d9576102d861229b565b5b60405190808252806020026020018201604052801561031257816020015b6102ff611a9f565b8152602001906001900390816102f75790505b5090506000600190505b60025481101561051957600660008281526020019081526020016000206040518060c0016040529081600082018054610354906122f9565b80601f0160208091040260200160405190810160405280929190818152602001828054610380906122f9565b80156103cd5780601f106103a2576101008083540402835291602001916103cd565b820191906000526020600020905b8154815290600101906020018083116103b057829003601f168201915b5050505050815260200160018201548152602001600282015481526020016003820180546103fa906122f9565b80601f0160208091040260200160405190810160405280929190818152602001828054610426906122f9565b80156104735780601f1061044857610100808354040283529160200191610473565b820191906000526020600020905b81548152906001019060200180831161045657829003601f168201915b50505050508152602001600482015481526020016005820160009054906101000a900473ffffffffffffffffffffffffffffffffffffffff1673ffffffffffffffffffffffffffffffffffffffff1673ffffffffffffffffffffffffffffffffffffffff1681525050826001836104ea9190612267565b815181106104fb576104fa61232a565b5b6020026020010181905250808061051190612359565b91505061031c565b508091505090565b6060600060016003546105349190612267565b67ffffffffffffffff81111561054d5761054c61229b565b5b60405190808252806020026020018201604052801561058657816020015b610573611aeb565b81526020019060019003908161056b5790505b5090506000600190505b60035481101561081f57600760008281526020019081526020016000206040518060e00160405290816000820180546105c8906122f9565b80601f01602080910402602001604051908101604052809291908181526020018280546105f4906122f9565b80156106415780601f1061061657610100808354040283529160200191610641565b820191906000526020600020905b81548152906001019060200180831161062457829003601f168201915b5050505050815260200160018201805461065a906122f9565b80601f0160208091040260200160405190810160405280929190818152602001828054610686906122f9565b80156106d35780601f106106a8576101008083540402835291602001916106d3565b820191906000526020600020905b8154815290600101906020018083116106b657829003601f168201915b50505050508152602001600282015481526020016003820180546106f6906122f9565b80601f0160208091040260200160405190810160405280929190818152602001828054610722906122f9565b801561076f5780601f106107445761010080835404028352916020019161076f565b820191906000526020600020905b81548152906001019060200180831161075257829003601f168201915b50505050508152602001600482015481526020016005820160009054906101000a900473ffffffffffffffffffffffffffffffffffffffff1673ffffffffffffffffffffffffffffffffffffffff1673ffffffffffffffffffffffffffffffffffffffff168152602001600682015481525050826001836107f09190612267565b815181106108015761080061232a565b5b6020026020010181905250808061081790612359565b915050610590565b508091505090565b60008054906101000a900473ffffffffffffffffffffffffffffffffffffffff1673ffffffffffffffffffffffffffffffffffffffff163373ffffffffffffffffffffffffffffffffffffffff16146108b5576040517f08c379a00000000000000000000000000000000000000000000000000000000081526004016108ac90612413565b60405180910390fd5b6000600454036108fa576040517f08c379a00000000000000000000000000000000000000000000000000000000081526004016108f19061247f565b60405180910390fd5b60026003541161093f576040517f08c379a0000000000000000000000000000000000000000000000000000000008152600401610936906124eb565b60405180910390fd5b600060016003546109509190612267565b67ffffffffffffffff8111156109695761096861229b565b5b6040519080825280602002602001820160405280156109a257816020015b61098f611aeb565b8152602001906001900390816109875790505b5090506109ad610521565b9050806001815181106109c3576109c261232a565b5b602002602001015160c00151816000815181106109e3576109e261232a565b5b602002602001015160c001511115610a5a5780600081518110610a0957610a0861232a565b5b602002602001015160a00151600160006101000a81548173ffffffffffffffffffffffffffffffffffffffff021916908373ffffffffffffffffffffffffffffffffffffffff160217905550610abb565b80600181518110610a6e57610a6d61232a565b5b602002602001015160a00151600160006101000a81548173ffffffffffffffffffffffffffffffffffffffff021916908373ffffffffffffffffffffffffffffffffffffffff1602179055505b50565b60008054906101000a900473ffffffffffffffffffffffffffffffffffffffff1673ffffffffffffffffffffffffffffffffffffffff163373ffffffffffffffffffffffffffffffffffffffff1614610b4c576040517f08c379a0000000000000000000000000000000000000000000000000000000008152600401610b439061257d565b60405180910390fd5b8142610b58919061259d565b60048190555080600454610b6c919061259d565b6005819055506000600860006101000a81548160ff0219169083151502179055505050565b6000610b9c33611427565b610bdb576040517f08c379a0000000000000000000000000000000000000000000000000000000008152600401610bd29061263f565b60405180910390fd5b6012841015610c1f576040517f08c379a0000000000000000000000000000000000000000000000000000000008152600401610c16906126ab565b60405180910390fd5b6040518060c0016040528087878080601f016020809104026020016040519081016040528093929190818152602001838380828437600081840152601f19601f820116905080830192505050505050508152602001858152602001600254815260200184848080601f016020809104026020016040519081016040528093929190818152602001838380828437600081840152601f19601f820116905080830192505050505050508152602001600081526020013373ffffffffffffffffffffffffffffffffffffffff168152506006600060025481526020019081526020016000206000820151816000019081610d179190612877565b5060208201518160010155604082015181600201556060820151816003019081610d419190612877565b506080820151816004015560a08201518160050160006101000a81548173ffffffffffffffffffffffffffffffffffffffff021916908373ffffffffffffffffffffffffffffffffffffffff1602179055509050506009600660006002548152602001908152602001600020908060018154018082558091505060019003906000526020600020906006020160009091909190915060008201816000019081610dea919061295f565b50600182015481600101556002820154816002015560038201816003019081610e13919061295f565b50600482015481600401556005820160009054906101000a900473ffffffffffffffffffffffffffffffffffffffff168160050160006101000a81548173ffffffffffffffffffffffffffffffffffffffff021916908373ffffffffffffffffffffffffffffffffffffffff160217905550505060026000815480929190610e9a90612359565b91905055506001905095945050505050565b426005541180610ec85750600860009054906101000a900460ff165b610f07576040517f08c379a0000000000000000000000000000000000000000000000000000000008152600401610efe90612a93565b60405180910390fd5b6000600660008481526020019081526020016000206004015414610f60576040517f08c379a0000000000000000000000000000000000000000000000000000000008152600401610f5790612aff565b60405180910390fd5b3373ffffffffffffffffffffffffffffffffffffffff166006600084815260200190815260200160002060050160009054906101000a900473ffffffffffffffffffffffffffffffffffffffff1673ffffffffffffffffffffffffffffffffffffffff1614611004576040517f08c379a0000000000000000000000000000000000000000000000000000000008152600401610ffb90612b6b565b60405180910390fd5b600060045403611049576040517f08c379a00000000000000000000000000000000000000000000000000000000081526004016110409061247f565b60405180910390fd5b60026003541161108e576040517f08c379a0000000000000000000000000000000000000000000000000000000008152600401611085906124eb565b60405180910390fd5b600381106110d1576040517f08c379a00000000000000000000000000000000000000000000000000000000081526004016110c890612bd7565b60405180910390fd5b80600660008481526020019081526020016000206004018190555060076000828152602001908152602001600020600601600081548092919061111390612359565b91905055505050565b6001600860006101000a81548160ff021916908315150217905550565b6111423361171a565b611181576040517f08c379a00000000000000000000000000000000000000000000000000000000081526004016111789061263f565b60405180910390fd5b60128310156111c5576040517f08c379a00000000000000000000000000000000000000000000000000000000081526004016111bc90612c69565b60405180910390fd5b6003805410611209576040517f08c379a000000000000000000000000000000000000000000000000000000000815260040161120090612cd5565b60405180910390fd5b6040518060e0016040528088888080601f016020809104026020016040519081016040528093929190818152602001838380828437600081840152601f19601f82011690508083019250505050505050815260200186868080601f016020809104026020016040519081016040528093929190818152602001838380828437600081840152601f19601f82011690508083019250505050505050815260200184815260200183838080601f016020809104026020016040519081016040528093929190818152602001838380828437600081840152601f19601f82011690508083019250505050505050815260200160035481526020013373ffffffffffffffffffffffffffffffffffffffff1681526020016000815250600760006003548152602001908152602001600020600082015181600001908161134b9190612877565b5060208201518160010190816113619190612877565b506040820151816002015560608201518160030190816113819190612877565b506080820151816004015560a08201518160050160006101000a81548173ffffffffffffffffffffffffffffffffffffffff021916908373ffffffffffffffffffffffffffffffffffffffff16021790555060c08201518160060155905050600360008154809291906113f390612359565b919050555050505050505050565b600160009054906101000a900473ffffffffffffffffffffffffffffffffffffffff1681565b60008060016002546114399190612267565b67ffffffffffffffff8111156114525761145161229b565b5b60405190808252806020026020018201604052801561148b57816020015b611478611a9f565b8152602001906001900390816114705790505b5090506000600190505b60025481101561169257600660008281526020019081526020016000206040518060c00160405290816000820180546114cd906122f9565b80601f01602080910402602001604051908101604052809291908181526020018280546114f9906122f9565b80156115465780601f1061151b57610100808354040283529160200191611546565b820191906000526020600020905b81548152906001019060200180831161152957829003601f168201915b505050505081526020016001820154815260200160028201548152602001600382018054611573906122f9565b80601f016020809104026020016040519081016040528092919081815260200182805461159f906122f9565b80156115ec5780601f106115c1576101008083540402835291602001916115ec565b820191906000526020600020905b8154815290600101906020018083116115cf57829003601f168201915b50505050508152602001600482015481526020016005820160009054906101000a900473ffffffffffffffffffffffffffffffffffffffff1673ffffffffffffffffffffffffffffffffffffffff1673ffffffffffffffffffffffffffffffffffffffff1681525050826001836116639190612267565b815181106116745761167361232a565b5b6020026020010181905250808061168a90612359565b915050611495565b5060005b815181101561170e578373ffffffffffffffffffffffffffffffffffffffff168282815181106116c9576116c861232a565b5b602002602001015160a0015173ffffffffffffffffffffffffffffffffffffffff16036116fb57600092505050611715565b808061170690612359565b915050611696565b5060019150505b919050565b600080600160035461172c9190612267565b67ffffffffffffffff8111156117455761174461229b565b5b60405190808252806020026020018201604052801561177e57816020015b61176b611aeb565b8152602001906001900390816117635790505b5090506000600190505b600354811015611a1757600760008281526020019081526020016000206040518060e00160405290816000820180546117c0906122f9565b80601f01602080910402602001604051908101604052809291908181526020018280546117ec906122f9565b80156118395780601f1061180e57610100808354040283529160200191611839565b820191906000526020600020905b81548152906001019060200180831161181c57829003601f168201915b50505050508152602001600182018054611852906122f9565b80601f016020809104026020016040519081016040528092919081815260200182805461187e906122f9565b80156118cb5780601f106118a0576101008083540402835291602001916118cb565b820191906000526020600020905b8154815290600101906020018083116118ae57829003601f168201915b50505050508152602001600282015481526020016003820180546118ee906122f9565b80601f016020809104026020016040519081016040528092919081815260200182805461191a906122f9565b80156119675780601f1061193c57610100808354040283529160200191611967565b820191906000526020600020905b81548152906001019060200180831161194a57829003601f168201915b50505050508152602001600482015481526020016005820160009054906101000a900473ffffffffffffffffffffffffffffffffffffffff1673ffffffffffffffffffffffffffffffffffffffff1673ffffffffffffffffffffffffffffffffffffffff168152602001600682015481525050826001836119e89190612267565b815181106119f9576119f861232a565b5b60200260200101819052508080611a0f90612359565b915050611788565b5060005b8151811015611a93578373ffffffffffffffffffffffffffffffffffffffff16828281518110611a4e57611a4d61232a565b5b602002602001015160a0015173ffffffffffffffffffffffffffffffffffffffff1603611a8057600092505050611a9a565b8080611a8b90612359565b915050611a1b565b5060019150505b919050565b6040518060c001604052806060815260200160008152602001600081526020016060815260200160008152602001600073ffffffffffffffffffffffffffffffffffffffff1681525090565b6040518060e001604052806060815260200160608152602001600081526020016060815260200160008152602001600073ffffffffffffffffffffffffffffffffffffffff168152602001600081525090565b600081519050919050565b600082825260208201905092915050565b60005b83811015611b78578082015181840152602081019050611b5d565b83811115611b87576000848401525b50505050565b6000601f19601f8301169050919050565b6000611ba982611b3e565b611bb38185611b49565b9350611bc3818560208601611b5a565b611bcc81611b8d565b840191505092915050565b60006020820190508181036000830152611bf18184611b9e565b905092915050565b600081519050919050565b600082825260208201905092915050565b6000819050602082019050919050565b600082825260208201905092915050565b6000611c4182611b3e565b611c4b8185611c25565b9350611c5b818560208601611b5a565b611c6481611b8d565b840191505092915050565b6000819050919050565b611c8281611c6f565b82525050565b600073ffffffffffffffffffffffffffffffffffffffff82169050919050565b6000611cb382611c88565b9050919050565b611cc381611ca8565b82525050565b600060c0830160008301518482036000860152611ce68282611c36565b9150506020830151611cfb6020860182611c79565b506040830151611d0e6040860182611c79565b5060608301518482036060860152611d268282611c36565b9150506080830151611d3b6080860182611c79565b5060a0830151611d4e60a0860182611cba565b508091505092915050565b6000611d658383611cc9565b905092915050565b6000602082019050919050565b6000611d8582611bf9565b611d8f8185611c04565b935083602082028501611da185611c15565b8060005b85811015611ddd5784840389528151611dbe8582611d59565b9450611dc983611d6d565b925060208a01995050600181019050611da5565b50829750879550505050505092915050565b60006020820190508181036000830152611e098184611d7a565b905092915050565b600081519050919050565b600082825260208201905092915050565b6000819050602082019050919050565b600060e0830160008301518482036000860152611e5a8282611c36565b91505060208301518482036020860152611e748282611c36565b9150506040830151611e896040860182611c79565b5060608301518482036060860152611ea18282611c36565b9150506080830151611eb66080860182611c79565b5060a0830151611ec960a0860182611cba565b5060c0830151611edc60c0860182611c79565b508091505092915050565b6000611ef38383611e3d565b905092915050565b6000602082019050919050565b6000611f1382611e11565b611f1d8185611e1c565b935083602082028501611f2f85611e2d565b8060005b85811015611f6b5784840389528151611f4c8582611ee7565b9450611f5783611efb565b925060208a01995050600181019050611f33565b50829750879550505050505092915050565b60006020820190508181036000830152611f978184611f08565b905092915050565b600080fd5b600080fd5b611fb281611c6f565b8114611fbd57600080fd5b50565b600081359050611fcf81611fa9565b92915050565b60008060408385031215611fec57611feb611f9f565b5b6000611ffa85828601611fc0565b925050602061200b85828601611fc0565b9150509250929050565b600080fd5b600080fd5b600080fd5b60008083601f84011261203a57612039612015565b5b8235905067ffffffffffffffff8111156120575761205661201a565b5b6020830191508360018202830111156120735761207261201f565b5b9250929050565b60008060008060006060868803121561209657612095611f9f565b5b600086013567ffffffffffffffff8111156120b4576120b3611fa4565b5b6120c088828901612024565b955095505060206120d388828901611fc0565b935050604086013567ffffffffffffffff8111156120f4576120f3611fa4565b5b61210088828901612024565b92509250509295509295909350565b60008115159050919050565b6121248161210f565b82525050565b600060208201905061213f600083018461211b565b92915050565b60008060008060008060006080888a03121561216457612163611f9f565b5b600088013567ffffffffffffffff81111561218257612181611fa4565b5b61218e8a828b01612024565b9750975050602088013567ffffffffffffffff8111156121b1576121b0611fa4565b5b6121bd8a828b01612024565b955095505060406121d08a828b01611fc0565b935050606088013567ffffffffffffffff8111156121f1576121f0611fa4565b5b6121fd8a828b01612024565b925092505092959891949750929550565b61221781611ca8565b82525050565b6000602082019050612232600083018461220e565b92915050565b7f4e487b7100000000000000000000000000000000000000000000000000000000600052601160045260246000fd5b600061227282611c6f565b915061227d83611c6f565b9250828210156122905761228f612238565b5b828203905092915050565b7f4e487b7100000000000000000000000000000000000000000000000000000000600052604160045260246000fd5b7f4e487b7100000000000000000000000000000000000000000000000000000000600052602260045260246000fd5b6000600282049050600182168061231157607f821691505b602082108103612324576123236122ca565b5b50919050565b7f4e487b7100000000000000000000000000000000000000000000000000000000600052603260045260246000fd5b600061236482611c6f565b91507fffffffffffffffffffffffffffffffffffffffffffffffffffffffffffffffff820361239657612395612238565b5b600182019050919050565b7f596f7520617265206e6f742066726f6d20656c656374696f6e20636f6d6d697360008201527f696f6e0000000000000000000000000000000000000000000000000000000000602082015250565b60006123fd602383611b49565b9150612408826123a1565b604082019050919050565b6000602082019050818103600083015261242c816123f0565b9050919050565b7f566f74696e6720686173206e6f74207374617274656400000000000000000000600082015250565b6000612469601683611b49565b915061247482612433565b602082019050919050565b600060208201905081810360008301526124988161245c565b9050919050565b7f546865726520617265206e6f2063616e6469646174657320746f20766f746500600082015250565b60006124d5601f83611b49565b91506124e08261249f565b602082019050919050565b60006020820190508181036000830152612504816124c8565b9050919050565b7f596f7520617265206e6f742066726f6d20456c656374696f6e20436f6d6d697360008201527f696f6e0000000000000000000000000000000000000000000000000000000000602082015250565b6000612567602383611b49565b91506125728261250b565b604082019050919050565b600060208201905081810360008301526125968161255a565b9050919050565b60006125a882611c6f565b91506125b383611c6f565b9250827fffffffffffffffffffffffffffffffffffffffffffffffffffffffffffffffff038211156125e8576125e7612238565b5b828201905092915050565b7f596f75206861766520616c726561647920726567697374657264000000000000600082015250565b6000612629601a83611b49565b9150612634826125f3565b602082019050919050565b600060208201905081810360008301526126588161261c565b9050919050565b7f596f7520617265206e6f7420656c696769626c6520746f20766f746500000000600082015250565b6000612695601c83611b49565b91506126a08261265f565b602082019050919050565b600060208201905081810360008301526126c481612688565b9050919050565b60008190508160005260206000209050919050565b60006020601f8301049050919050565b600082821b905092915050565b60006008830261272d7fffffffffffffffffffffffffffffffffffffffffffffffffffffffffffffffff826126f0565b61273786836126f0565b95508019841693508086168417925050509392505050565b6000819050919050565b600061277461276f61276a84611c6f565b61274f565b611c6f565b9050919050565b6000819050919050565b61278e83612759565b6127a261279a8261277b565b8484546126fd565b825550505050565b600090565b6127b76127aa565b6127c2818484612785565b505050565b5b818110156127e6576127db6000826127af565b6001810190506127c8565b5050565b601f82111561282b576127fc816126cb565b612805846126e0565b81016020851015612814578190505b612828612820856126e0565b8301826127c7565b50505b505050565b600082821c905092915050565b600061284e60001984600802612830565b1980831691505092915050565b6000612867838361283d565b9150826002028217905092915050565b61288082611b3e565b67ffffffffffffffff8111156128995761289861229b565b5b6128a382546122f9565b6128ae8282856127ea565b600060209050601f8311600181146128e157600084156128cf578287015190505b6128d9858261285b565b865550612941565b601f1984166128ef866126cb565b60005b82811015612917578489015182556001820191506020850194506020810190506128f2565b868310156129345784890151612930601f89168261283d565b8355505b6001600288020188555050505b505050505050565b600081549050612958816122f9565b9050919050565b81810361296d575050612a45565b61297682612949565b67ffffffffffffffff81111561298f5761298e61229b565b5b61299982546122f9565b6129a48282856127ea565b6000601f8311600181146129d357600084156129c1578287015490505b6129cb858261285b565b865550612a3e565b601f1984166129e1876126cb565b96506129ec866126cb565b60005b82811015612a14578489015482556001820191506001850194506020810190506129ef565b86831015612a315784890154612a2d601f89168261283d565b8355505b6001600288020188555050505b5050505050505b565b7f566f74696e67206973206f766572000000000000000000000000000000000000600082015250565b6000612a7d600e83611b49565b9150612a8882612a47565b602082019050919050565b60006020820190508181036000830152612aac81612a70565b9050919050565b7f596f75206861766520616c726561647920766f74656400000000000000000000600082015250565b6000612ae9601683611b49565b9150612af482612ab3565b602082019050919050565b60006020820190508181036000830152612b1881612adc565b9050919050565b7f596f7520617265206e6f74206120766f74657200000000000000000000000000600082015250565b6000612b55601383611b49565b9150612b6082612b1f565b602082019050919050565b60006020820190508181036000830152612b8481612b48565b9050919050565b7f43616e64696461746520646f6573206e6f742065786973740000000000000000600082015250565b6000612bc1601883611b49565b9150612bcc82612b8b565b602082019050919050565b60006020820190508181036000830152612bf081612bb4565b9050919050565b7f596f7520617265206e6f7420656c696769626c6520746f20626520612063616e60008201527f6469646174650000000000000000000000000000000000000000000000000000602082015250565b6000612c53602683611b49565b9150612c5e82612bf7565b604082019050919050565b60006020820190508181036000830152612c8281612c46565b9050919050565b7f526567697374726174696f6e2069732066756c6c000000000000000000000000600082015250565b6000612cbf601483611b49565b9150612cca82612c89565b602082019050919050565b60006020820190508181036000830152612cee81612cb2565b905091905056fea264697066735822122076896fb597fe1da95b3f2a61b87cd52534c81d28386f01c6ff14fffa9024b31c64736f6c634300080f0033",
  "immutableReferences": {},
  "source": "// SPDX-License-Identifier: MIT\r\npragma solidity >=0.5.0 <0.9.0;\r\n\r\ncontract Vote {\r\n    address electionCommission;\r\n    address public winner;\r\n    struct Voter {\r\n        string name;\r\n        uint256 age;\r\n        uint256 voterId;\r\n        string gender;\r\n        uint256 voteCandidateId;\r\n        address voterAddress;\r\n    }\r\n\r\n    struct Candidate {\r\n        string name;\r\n        string party;\r\n        uint256 age;\r\n        string gender;\r\n        uint256 candidateId;\r\n        address candidateAddress;\r\n        uint256 votes;\r\n    }\r\n\r\n    uint256 nextVoterId = 1;\r\n    uint256 nextCandidateId = 1;\r\n    uint256 startTime;\r\n    uint256 endTime;\r\n    mapping(uint256 => Voter) voterDetails;\r\n    mapping(uint256 => Candidate) candidateDetails;\r\n    bool stopVoting;\r\n    Voter[] private voteArr;\r\n\r\n    constructor() {\r\n        electionCommission = msg.sender;\r\n    }\r\n\r\n    modifier isVotingOver() {\r\n        require(endTime > block.timestamp || stopVoting, \"Voting is over\");\r\n        _;\r\n    }\r\n\r\n    function voterVerification(address _person) internal view returns (bool) {\r\n        Voter[] memory arr = new Voter[](nextVoterId - 1);\r\n\r\n        for (uint256 i = 1; i < nextVoterId; i++) {\r\n            arr[i - 1] = voterDetails[i];\r\n        }\r\n        for (uint256 i = 0; i < arr.length; i++) {\r\n            if (arr[i].voterAddress == _person) {\r\n                return false;\r\n            }\r\n        }\r\n        return true;\r\n    }\r\n\r\n    function candidateVerification(address _person)\r\n        internal\r\n        view\r\n        returns (bool)\r\n    {\r\n        Candidate[] memory arr = new Candidate[](nextCandidateId - 1);\r\n\r\n        for (uint256 i = 1; i < nextCandidateId; i++) {\r\n            arr[i - 1] = candidateDetails[i];\r\n        }\r\n        for (uint256 i = 0; i < arr.length; i++) {\r\n            if (arr[i].candidateAddress == _person) {\r\n                return false;\r\n            }\r\n        }\r\n        return true;\r\n    }\r\n\r\n    function voterRegister(\r\n        string calldata _name,\r\n        uint256 _age,\r\n        string calldata _gender\r\n    ) external returns (bool) {\r\n        require(voterVerification(msg.sender), \"You have already registerd\");\r\n        require(_age >= 18, \"You are not eligible to vote\");\r\n        voterDetails[nextVoterId] = Voter(\r\n            _name,\r\n            _age,\r\n            nextVoterId,\r\n            _gender,\r\n            0,\r\n            msg.sender\r\n        );\r\n        voteArr.push(voterDetails[nextVoterId]);\r\n        nextVoterId++;\r\n        return true;\r\n    }\r\n\r\n    function vote(uint256 _voterId, uint256 _id) external isVotingOver {\r\n        require(\r\n            voterDetails[_voterId].voteCandidateId == 0,\r\n            \"You have already voted\"\r\n        );\r\n        require(\r\n            voterDetails[_voterId].voterAddress == msg.sender,\r\n            \"You are not a voter\"\r\n        );\r\n        require(startTime != 0, \"Voting has not started\");\r\n        require(nextCandidateId > 2, \"There are no candidates to vote\");\r\n        require(_id < 3, \"Candidate does not exist\");\r\n        voterDetails[_voterId].voteCandidateId = _id;\r\n        candidateDetails[_id].votes++;\r\n    }\r\n\r\n    function candidateRegister(\r\n        string calldata _name,\r\n        string calldata _party,\r\n        uint256 _age,\r\n        string calldata _gender\r\n    ) external {\r\n        require(\r\n            candidateVerification(msg.sender),\r\n            \"You have already registerd\"\r\n        );\r\n        require(_age >= 18, \"You are not eligible to be a candidate\");\r\n        require(nextCandidateId < 3, \"Registration is full\");\r\n        candidateDetails[nextCandidateId] = Candidate(\r\n            _name,\r\n            _party,\r\n            _age,\r\n            _gender,\r\n            nextCandidateId,\r\n            msg.sender,\r\n            0\r\n        );\r\n        nextCandidateId++;\r\n    }\r\n\r\n    function result() external {\r\n        require(\r\n            msg.sender == electionCommission,\r\n            \"You are not from election commision\"\r\n        );\r\n         require(startTime != 0, \"Voting has not started\");\r\n         require(nextCandidateId > 2, \"There are no candidates to vote\");\r\n         \r\n      \r\n        Candidate[] memory arr = new Candidate[](nextCandidateId - 1);\r\n        arr = candidateList();\r\n\r\n        if (arr[0].votes > arr[1].votes) {\r\n            winner = arr[0].candidateAddress;\r\n        } else {\r\n            winner = arr[1].candidateAddress;\r\n        }\r\n    }\r\n\r\n    function candidateList() public view returns (Candidate[] memory) {\r\n        Candidate[] memory arr = new Candidate[](nextCandidateId - 1);\r\n\r\n        for (uint256 i = 1; i < nextCandidateId; i++) {\r\n            arr[i - 1] = candidateDetails[i];\r\n        }\r\n        return arr;\r\n    }\r\n\r\n    function voterList() external view returns (Voter[] memory) {\r\n        Voter[] memory arr = new Voter[](nextVoterId - 1);\r\n        for (uint256 i = 1; i < nextVoterId; i++) {\r\n            arr[i - 1] = voterDetails[i];\r\n        }\r\n        return arr;\r\n    }\r\n\r\n    function voteTime(uint256 _startTime, uint256 _endTime) external {\r\n        require(\r\n            msg.sender == electionCommission,\r\n            \"You are not from Election Commision\"\r\n        );\r\n        startTime = block.timestamp + _startTime;\r\n        endTime = startTime + _endTime;\r\n        stopVoting = false;\r\n    }\r\n\r\n    function votingStatus() public view returns (string memory) {\r\n        if (startTime == 0) {\r\n            return \"Not Started\";\r\n        } else if (\r\n            (startTime != 0 && endTime > block.timestamp) && stopVoting == false\r\n        ) {\r\n            return \"In progress\";\r\n        } else {\r\n            return \"Ended\";\r\n        }\r\n    }\r\n\r\n    function emergency() public {\r\n        stopVoting = true;\r\n    }\r\n}\r\n\r\n// Candidate Registration Page\r\n// Candidate Login Page\r\n// Voter Registration Page\r\n// Voter Login Page\r\n",
  "sourcePath": "D:\\Shivam projects\\VOTING-DAPP\\Voting-Dapp\\Vstarter\\contracts\\Voting.sol",
  "compiler": {
    "name": "solc",
    "version": "0.8.15+commit.e14f2714.Emscripten.clang"
  },
  "schemaVersion": "3.4.13",
  "updatedAt": "2023-06-14T12:37:44.835Z",
  "networkType": "ethereum",
  "devdoc": {
    "kind": "dev",
    "methods": {},
    "version": 1
  },
  "userdoc": {
    "kind": "user",
    "methods": {},
    "version": 1
  }
}